:020000040800F2
:1000000070090020AD010008CF1D0008491D00083F
:10001000CD1D0008F30E0008452B0008000000006D
:10002000000000000000000000000000A9200008FF
:1000300025110008000000005D1F0008E5270008EA
:10004000C7010008C7010008C7010008C701000870
:10005000C7010008C7010008C7010008C701000860
:10006000C7010008C7010008C7010008C701000850
:10007000C7010008C7010008C7010008C701000840
:10008000C7010008C7010008C70100080000000000
:10009000000000000000000000000000C701000890
:1000A000C7010008C7010008C7010008C701000810
:1000B000C7010008C7010008C7010008C701000800
:1000C000C7010008C7010008C7010008C7010008F0
:1000D000C7010008C7010008C701000800000000B0
:1000E000C7010008C7010008C701000800000000A0
:1000F000000000000000000000000000C701000830
:1001000000000000C7010008C7010008C70100087F
:1001100000000000000000000000000000000000DF
:10012000C7010008C7010008C7010008C70100088F
:10013000C7010008000000000000000000000000EF
:10014000000000000000000000000000C7010008DF
:10015000C7010008C7010008C7010008392B0008C3
:10016000C7010008C70100080000000000000000EF
:10017000000000000000000000000000000000007F
:1001800000000000C701000800000000000000009F
:10019000C7010008C7010008DFF80CD000F0F6FD29
:1001A000004800471D3800087009002006488047B5
:1001B00006480047FEE7FEE7FEE7FEE7FEE7FEE74C
:1001C000FEE7FEE7FEE7FEE7692800089901000860
:1001D0002DE9F05F0546002092469B46884606467C
:1001E000814640241BE0284641464746224600F00F
:1001F000F8FB53465A46C01A914110D3114618468F
:10020000224600F0DFFB2D1A67EB01084F4622461D
:100210000120002100F0D6FB17EB00094E41201E03
:10022000A4F10104DFDC484631462A464346BDE8D6
:10023000F09FA0F14101192900D82030704700003B
:100240000649074A0868504343F2390210440860DF
:100250004008704701490860704700008000002096
:100260006D4EC64140EA01039B0703D009E008C96F
:10027000121F08C0042AFAD203E011F8013B00F86B
:10028000013B521EF9D27047D2B201E000F8012BB7
:10029000491EFBD270470022F6E710B513460A4606
:1002A00004461946FFF7F0FF204610BD421E12F823
:1002B000013F002BFBD111F8013B02F8013B002B61
:1002C000F9D1704730B505462A460B4612F8010BA6
:1002D00013F8014B08B1A042F8D01CB1002802D09D
:1002E0006D1CF1E7284630BD421C10F8011B0029A7
:1002F000FBD1801A704710B5002200E0521C835CCD
:100300008C5CA34201D1002BF8D1D8B2E1B2401AE3
:1003100010BD30B505460020034600E05B1C93424B
:1003200005D2EC5CC85C201A01D1002CF6D130BD9E
:1003300070B50F4D00B92868002412E00A4602E0AB
:100340009E4203D0521C1378002BF9D1DAB222431B
:1003500005D02BB124B1002100F8011B04E00446B4
:10036000401C0678002EE9D12860204670BD0000B0
:10037000840000202DE9FF4F087881B09946FF28BE
:1003800005D0491C2D2804D00024002308E00023B8
:100390000BE00124F9E703EB830300EB4303491C63
:1003A0000878FF28F7D104B15B4200200090147850
:1003B00001462D2C01D02B2C04D1521C2D2C12D0F7
:1003C0000024009400251678FF2E0ED00A24A0FBEE
:1003D00004C801FB0481002700FB0711521C16EB27
:1003E0000C006941EFE70124EBE7994450EA010270
:1003F0000ED00024AA4D2646DFF8A88200F086FC25
:1004000082468B46B9F1000009DAC9F100071BE00A
:1004100001980021C0E9001105B0BDE8F08F074642
:1004200012E0F80707D022462B463046414600F03E
:10043000F1F90646884622462B461046194600F03A
:10044000E9F904460D467F10002FEAD1B9F1000FFB
:10045000324643465046594602DA00F0E8FB01E0D6
:1004600000F0D8F9009A0AB181F00041019AC2E97E
:100470000001D1E72DE9FF4F1F468DB0D7E90146B6
:100480004FF0FF382E2045464FF000090B90B96918
:100490006D1C0E988847396A824688470028F6D135
:1004A000BAF1FF3F0AD024F4D064002E11DDBAF176
:1004B0002B0F08D0BAF12D0F0BD102E0404611B03E
:1004C000ABE744F48064B9696D1C0E988847824696
:1004D000761E6946600501D52D2000E02B208DF8A1
:1004E000000001F1010B0DF1200809E0B9696D1C54
:1004F0000E98884782460F9844F40074761E056073
:10050000002E02DDBAF1300FF0D00B998A453ED1B2
:1005100044F0800406E00F99681CA9F1010944F435
:1005200000740860B9696D1C761E0E988847824673
:100530003028F0D02BE00B998A4505D1200603D452
:1005400044F08004761E18E0504602F077FC08B3B1
:100550000DF11301761E44F400748B4508D2AAF104
:1005600030000BF8010B200607D5A9F1010003E0CC
:10057000200602D409F101008146A00502D50F9999
:10058000681C0860B9696D1C0E9888478246002E69
:10059000D1DC53E0002E51DDBAF1650F02D0BAF183
:1005A000450F4BD1A00549D5B9696D1C24F44074A1
:1005B000761E0E9888478246002E0CDD2B2804D02C
:1005C000BAF12D0F07D144F48074B9696D1C0E98EF
:1005D00088478246761EE00501D52D2100E02B21BB
:1005E00008F8011BCDF82C8021E00DF12901761EC1
:1005F00044F4007488450CD2AAF1300010F0FF00DA
:1006000088F8000002D10B99884509D908F1010842
:1006100006E0E00501D5244801E042F20F70814672
:10062000B9696D1C0E98884782460F980560002EA8
:1006300004DD504602F002FC0028D6D1F9690E987C
:100640008847FF208BF8000088F800000020069003
:1006500007904B466A4608A906A8FFF78BFEA0053F
:1006600002D46FF001002AE714F0240F0AD0E0074B
:1006700014D1DDE906123868031D3B600068C0E94B
:1006800000120BE0DDE9060100F064FB0146E00723
:1006900004D13868021D3A600068016028460EE700
:1006A000000024400000F03FF1D8FFFF70B506467F
:1006B00002F092FA046805460A220021304600F052
:1006C00021FA2C6070BD2DE9FE4F804681EA0300BF
:1006D000C00F0C46009021F0004123F00045B8EB1C
:1006E0000200A94105D24046214690461C460B46D1
:1006F000024623F00040104347D0270DC7F30A00FD
:10070000C3F30A510290401A019040286BDAC3F3F8
:10071000130040F4801B0098924620B10023D2EBD6
:10072000030A63EB0B0B01985946C0F14002504697
:1007300000F048F906460D4650465946019A00F029
:1007400060F910EB08006141002487EA115284EA45
:10075000E7731A4340D0009A62B3019A012A4FEA24
:10076000075215DC001B61EB02014FF0004202EA68
:100770000752CDE90042001C41F5801132462B465C
:1007800000F007FA03B0BDE8F08F40462146F9E7D4
:10079000001B61EB0201001C41F5801300185B4156
:1007A0002018A2F5001747EB030140EAD570B619EF
:1007B0006D4111E06D084FEA360645EAC0754FEA13
:1007C0000752001B61EB0201001C41F58011490832
:1007D0004FEA30000019514132462B4603B0BDE8C4
:1007E000F04F00F0C7B90098012240000023D0EB81
:1007F000020263EBE073009821464FEAE074B8EB25
:10080000000061EB0401E9E783F000435BE781F05E
:10081000004158E72DE9FE4F81EA030404F000444B
:1008200021F0004100944FF0000B23F0004350EA08
:1008300001045ED052EA03045BD0C3F30A54C1F34F
:100840000A552C44A4F2F3340194A0FB0254C1F3E2
:10085000130141F48011C3F3130343F4801301FB2C
:10086000024400FB034E840A970A44EA815447EA93
:100870008357A4FB076802958D0A05FB07854FEA9D
:10088000932C04FB0C542705029D4FEA065847EAB7
:100890001637B5EB08056EEB070C870E920E47EA8C
:1008A000811742EA8312A7FB0201B6EB0B0164EB4E
:1008B00000042B0D43EA0C335E1844EB1C50DA465F
:1008C0005146E7FB0201C5F313044FEA0B3343EA39
:1008D00014534FEA0432019C43EA0603A4F10C04CA
:1008E0000294009CCDE900B400F053F903B0BDE8D8
:1008F000F08F00200146F9E770B5C1F30A5201F00C
:1009000000450024C1F3130140F2FF3341F480118C
:100910009A4201DA002070BD40F233439A42A2F2BB
:10092000334203DC524200F05CF800E090402C437C
:10093000F1D0404270BD000030B5041E71F10004DA
:1009400004DB4FF00044404264EB0101141E73F1DC
:10095000000405DB1C464FF00043524263EB0403E6
:100960008B4208BF824230BD30B5041E71F10004D5
:1009700004DB4FF00044404264EB0101141E73F1AC
:10098000000405DB1C464FF00043524263EB0403B6
:10099000994208BF904230BD30B50B460146002059
:1009A0002022012409E021FA02F59D4205D303FA31
:1009B00002F5491B04FA02F52844151EA2F10102B2
:1009C000F1DC30BD202A04DB203A00FA02F10020DD
:1009D00070479140C2F1200320FA03F3194390407D
:1009E0007047202A04DB203A21FA02F000217047E8
:1009F00021FA02F3D040C2F1200291400843194687
:100A00007047202A06DBCB17203A41FA02F043EA6E
:100A1000E07306E041FA02F3D040C2F120029140B7
:100A2000084319467047426842B1016811F8013B1A
:100A300023B1521EC0E90012184670470121C1605F
:100A4000881E704742685AB1C368016843B9836819
:100A50008B4205D0491E521CC0E90012002070478D
:100A60004FF0FF30704700000FB4002300B589B08D
:100A70000CA900910B996FF00042CB601E4B0693BE
:100A80001E4B07930423CDE901321D4A089202460A
:100A90006B460020FFF7EEFC09B05DF814FB70B563
:100AA00086B006464FF0FF300091CDE901010020ED
:100AB00015460C4604903246694604A8FFF7D4FF59
:100AC00003460498211825B108B10A4600E02246E1
:100AD0002A6000280DD0002B02DD0098884208D043
:100AE000081B0094CDE901043246694604A8FFF7CB
:100AF000BBFF06B070BD0000270A0008450A0008C9
:100B0000B90D00082DE9F04791460F46804604468E
:100B1000002614F8015B2DB100F04AF90068405D31
:100B2000C007F6D12B2D02D02D2D18D0641E4A46B9
:100B30003946204600F049F927B13968A14201D170
:100B4000C7F8008071054FF002040BD54042002821
:100B500003DD02F041F80460A007BDE8F08746F429
:100B60008066E4E70028F8DA02F036F804606FF0F7
:100B70000040F2E710B5141E73F1000408DA401CBF
:100B800041F1000192185B411A4301D120F00100AC
:100B900010BD2DE9F04D92469B4611B1B1FA81F29C
:100BA00002E0B0FA80F220329046FFF70BFF0446D5
:100BB0000F4640EA0A0041EA0B0153465A460843F1
:100BC00013D0114653EA010019D0C8F14002504633
:100BD000FFF707FF05460E46504659464246FFF7C7
:100BE000F1FE084305D0012004E020463946BDE867
:100BF000F08D0020054346EAE0762C4337430A98FF
:100C00006305E40AA0EB08000022FD0A44EA475409
:100C10000A3002D500200146E9E7010510196941B3
:100C2000DDE9084500196941BDE8F04DA2E72DE96D
:100C3000F04D81EA030404F0004B21F00045144616
:100C40004FF0000A23F0004150EA050220D054EA98
:100C500001021DD0C5F30A570246C5F31303C1F3C1
:100C60001300C1F30A5640F4801543F48013A7EB38
:100C70000608101BD64608F2FD3873EB050002D3B8
:100C800008F1010801E092185B41B8F1000F03DAA6
:100C900000200146BDE8F08D00204FF4801106468B
:100CA00084460EE0171B73EB050705D3121B63EB9D
:100CB000050306434CEA010C49084FEA300092183C
:100CC0005B4150EA0107EDD152EA030012D082EAFB
:100CD000040083EA0501084305D0101BAB4106D28E
:100CE0000122002306E000224FF0004302E06FF0F3
:100CF000010253101AEB06004CEB085110EB0A00EE
:100D000041EB0B01BDE8F04DFFF734BF0EB540F2EB
:100D1000334202920022CDE900221346FFF739FF49
:100D200003B000BDC1F30A52C1F3130140F2FF3317
:100D300041F480119A4202DA00200146704740F2E5
:100D400033439A42A2F2334202DC5242FFF749BED9
:100D5000FFF738BE01F0004330B421F0004150EA03
:100D6000010206D00A0DA2F56072C1F31301002A38
:100D700002DC30BC00207047440F44EAC104C100CB
:100D8000E01830BC00EBC25000F06EB8064C074DC6
:100D900006E0E06840F0010394E80700984710344B
:100DA000AC42F6D3FFF7FCF9584000087840000841
:100DB00000487047F43F000810B50446FFF7F8FFFD
:100DC0000068005D00F0010010BD2DE9F05F824673
:100DD0000078002715468B460AF10104B9463028F1
:100DE00001D09DB113E014F8010B0127782803D03E
:100DF000582801D045B10AE00DB1102D07D10027C8
:100E0000102514F8010B02E0082500E00A25002651
:100E1000B0460EE005FB080005FB06F1012701EBDB
:100E200010461FFA80F8B6F5803F00D3B94614F893
:100E3000010B294600F04FF80028EBDABBF1000F58
:100E400005D00FB1641E00E05446CBF80040B9F164
:100E5000000F06D001F0C0FE02210160C81EBDE8EF
:100E6000F09F48EA0640FAE70029A8BF7047401CF7
:100E7000490008BF20F00100704710B4B0FA80FCB0
:100E800000FA0CF050EA010404BF10BC704749B1ED
:100E9000CCF1200421FA04F411FA0CF118BF01215D
:100EA00021430843A3EB0C01CB1D4FEA00614FEA3D
:100EB000102042BF002010BC704700EBC35010440C
:100EC0000029A4BF10BC7047401C490008BF20F097
:100ED000010010BC70473A2800D2303820F02002C0
:100EE000412A01D3A2F13700884201D34FF0FF30ED
:100EF0007047FEE706488168491C8160C168891C0B
:100F0000C160642902D900218160C160704700007E
:100F1000140000200020054A01464FF4FA731154D2
:100F2000401C9842FBDB024881707047180100208A
:100F3000140000200020054A01461154401CC0B294
:100F40006428FAD302488165704700007C010020C4
:100F5000140000202DE9FF4FFFB0984691468246CD
:100F6000DDF830B2FFF76CF9642190FBF1F201FB80
:100F70001202002001464CAB65AC01AD1AAE33AF96
:100F800019542154295431543954401C6428F7DB36
:100F900041A1204601F0FCFD40A14CA8FFF786F9D5
:100FA00065A94CA8FFF782F93DA101A8FFF77EF9DA
:100FB0004CA901A8FFF77AF93FA101A8FFF776F93C
:100FC000494601A8FFF772F93BA101A8FFF76EF9A6
:100FD000414601A8FFF76AF938A101A8FFF766F9B1
:100FE00038A101A8FFF762F937A101A8FFF75EF960
:100FF00036A11AA8FFF75AF951461AA8FFF756F971
:1010000036A11AA8FFF752F91AA88099FFF74EF9EE
:1010100033A11AA8FFF74AF933A133A8FFF746F91D
:10102000594633A8FFF742F933A133A8FFF73EF939
:1010300033A933A001F088FD052441F2883500234F
:101040002A4632A101A8009401F06CF94FF47A7697
:10105000304600F07BF8FFF75DFF00232A462CA105
:101060001AA8009401F05EF9304600F06FF8FFF71F
:1010700051FF00232A4625A133A8009401F052F91C
:10108000304600F063F8FFF745FF2549012008626C
:101090000DF5037DBDE8F08F256400004553500039
:1010A00041542B4D515454555345524346473D30BE
:1010B0002C312C2200000000222C2200222C302C6B
:1010C000302C0000222200000D0A000041542B4D5C
:1010D000515454434F4E4E3D302C2200222C0000E0
:1010E0002C310D0A0000000041542B4D5154545333
:1010F00055423D302C220000222C300D0A00000009
:101100004D5154545355423A202573004F4B000023
:101110002B4D515454434F4E4E45435445440000CB
:1011200014000020704790F83510022903D0802168
:10113000416501207047052180F83510006801687D
:1011400021F00101016000207047000070B50446E5
:1011500000F0E4F80546601C02D00448007804441E
:1011600000F0DCF8401BA042FAD370BD70000020F4
:101170002DE9F84F00224FF0010803254FF00F0E24
:101180000B6808FA02F42340A34271D14E68012E85
:1011900005D0022E03D0112E01D0122E15D1866853
:1011A000570005FA07FC26EA0C06D1F80CC00CFA29
:1011B00007FC4CEA060CC0F808C04668A6430C7948
:1011C000C4F30014944034434460C668570005FAE1
:1011D00007FC8C6826EA0C06BC403443C4604C68AB
:1011E000022C01D0122C13D1D40800EB8404A346A6
:1011F000D4F8209054074FEAD46A0EFA0AF629EA86
:1012000006090E6906FA0AF646EA0906CBF82060D6
:1012100004680E7924EA0C0406F00306BE40264357
:1012200006604C68E40056D52E4C266846F480468D
:101230002660246822F0030604F4804400942A4CBB
:101240003444A446D4F808489607370F0EFA07F638
:10125000B443264EB04201D1002615E0244EB042E0
:1012600001D1012610E0234EB04202D102260BE04C
:1012700031E0214EB04201D1032605E01F4EB042BD
:1012800001D1042600E00726BE402643CCF80868BA
:101290001B4E34684F689C43FF0300D51C433460E9
:1012A000174E361D34684F689C43BF0300D51C435E
:1012B0003460134E083634684F689C43FF0200D5F3
:1012C0001C4334600E4E0C3634684F689C43BF029A
:1012D00000D51C433460521C102AFFF451AFBDE806
:1012E000F88F000044380240003001400000024006
:1012F0000004024000080240000C024000100240BE
:10130000003C0140426931EA020200D109048161D6
:1013100070470AB1816170470904FBE701488068A2
:101320007047000070000020024881680278114474
:1013300081607047700000200B4810B5016841F4CF
:1013400000710160016841F480610160016841F44D
:1013500080710160032000F06FF8002000F006F8B3
:1013600000F024F8002010BD003C024070B50D4D87
:1013700004464FF47A712878B1FBF0F00A49096805
:10138000B1FBF0F000F004FB48B9102C07D20022AA
:101390002146501E00F030F800206C6070BD012026
:1013A00070BD0000700000207C0000200A4808B5D5
:1013B000016841F480410160006800F480400090C1
:1013C0000548001F016841F080510160006800F08D
:1013D0008050009008BD000044380240002809DB1E
:1013E00000F01F02012191404009800000F1E0203F
:1013F000C0F8001170470000F0B40E4B1B680C469B
:10140000C3F30223C3F10705042D00D90425191DD8
:10141000072901D2002300E0DB1E012606FA05F1B0
:10142000491E214099409E40761E16403143F0BC33
:1014300001F0C2BB0CED00E0064900F007020868AD
:101440004FF6FF03184040EA0220034A10430860A9
:10145000704700000CED00E00000FA052DE9F047B0
:101460000E46050065D0DFF81481D8F80000F7B209
:1014700000F00F00B04207D288F80070D8F80000E2
:1014800000F00F00B04254D128683D4C810712D5BE
:10149000400703D5206840F4E0502060287800071A
:1014A00003D5206840F4604020602068A96820F0DF
:1014B000F000084320602878C0072DD030496868C4
:1014C0000839012812D0022813D0032811D0096846
:1014D000890700292DDA216821F0030101432160E9
:1014E000FFF71CFF814641F2883A0EE00968890344
:1014F000EFE709688901ECE7FFF710FFA0EB0901AE
:10150000514502D90320BDE8F0872068696800F0E2
:101510000C00B0EB810FEFD1D8F80010404601F07D
:101520000F01B14207D90770006800F00F00B04208
:1015300001D00120E7E72878400705D52068E96851
:1015400020F4E050084320602878000706D5206882
:10155000296920F4604040EAC100206000F038F8BA
:101560002168084AC1F30311515CC840064908606C
:1015700006480068FFF7FAFE0020C4E7003C02407E
:10158000083802405A3F00087C0000207400002008
:101590000448054900680968044AC1F38221515C86
:1015A000C84070477C000020083802406A3F0008AD
:1015B0000448054900680968044AC1F34231515C96
:1015C000C84070477C000020083802406A3F00088D
:1015D000154810B5006810F00C02144813D01449D7
:1015E000042A0FD0082A0ED10F4C241F226823682A
:1015F00002F03F025B0207D52068C0F38810A0FB11
:10160000010106E0084610BD2168C1F38811A1FB65
:1016100000010023FEF7DCFD2168C1F30141491CF4
:101620004900B0FBF1F010BD083802400024F4007E
:1016300040787D012DE9F84F04006ED02078DFF866
:101640003C93C007A9F104054AD009F104000168E0
:10165000C1F38101012908D00068C0F3810002288C
:101660000AD1D9F80000400206D52868800337D592
:1016700060680028E1D033E06068B0F5803F10D0AA
:10168000B0F5A02F286810D020F48030286028689A
:1016900020F4802028606068A8B1FFF73FFE06466E
:1016A0000DE0286840F48030F4E740F480202860A2
:1016B000F7E700BFFFF732FE801B642873D8286865
:1016C0008003F7D50CE0FFF729FE064605E000BFD2
:1016D000FFF724FE801B6428F0D828688003F7D425
:1016E0002078DFF89C8280074FF0000A3ED5A3489F
:1016F000001D016811F00C0F08D00068C0F38100D4
:1017000002280BD1D9F80000400207D428688007CE
:1017100016D5E068012800D112E02BE1E068B8B1ED
:101720000120C8F80000FFF7F9FD064605E000BFFC
:10173000FFF7F4FD801B0228C0D828688007F7D582
:101740002868216920F0F80040EAC10028600DE017
:10175000C8F800A0FFF7E2FD064604E0FFF7DEFD53
:10176000801B02281FD828688007F7D4207800073C
:1017700022D5824E83486169703671B101210160C2
:10178000FFF7CCFD074604E0FFF7C8FDC01B0228A9
:1017900009D830688007F7D50EE0C0F800A0FFF741
:1017A000BDFD074605E082E0FFF7B8FDC01B02283B
:1017B0007DD830688007F7D42078400768D5DFF8F7
:1017C000BCB100270BF13C0BDBF80000C0000BD4D0
:1017D000DBF8001041F08051CBF80010DBF800007E
:1017E000012700F080500090674E3068C00510D48B
:1017F000306840F480703060FFF790FD009005E0A5
:10180000FFF78CFD0099401A022850D83068C005B7
:10181000F6D55A4EA0686C3601280FD005283068DE
:1018200010D020F001003060306820F004003060FB
:10183000A068B8B1FFF772FD00900FE0306840F08B
:101840000100F4E740F004003060F7E7FFF766FDC1
:101850000099411A41F28830814266D83068800789
:10186000F4D50EE0FFF75AFD009007E0FFF756FDB4
:101870000099411A41F28830814256D83068800779
:10188000F4D42FB1DBF8001021F08051CBF8001018
:10189000A069C8B33949091D0968C1F3810102294A
:1018A0004AD00228504607D0C8F8600000E03CE06B
:1018B000FFF734FD04463BE04746C8F86000FFF7F9
:1018C0002DFD064605E000BFFFF728FD801B02281E
:1018D0002BD828688001F7D4D4E907010843A16A0E
:1018E0002A4A490802EB0141626A41EA821108432F
:1018F00094F82C1040EA0161C9F800100120386604
:10190000FFF70CFD044606E036E000BFFFF706FDDA
:10191000001B022809D828688001F7D52CE000BFF9
:10192000FFF7FCFC001B022802D90320BDE8F88F5A
:1019300028688001F4D41FE00128F7D0D9F800000E
:10194000E26900F48001914214D1226A00F03F0163
:1019500091420FD147F6C071626A0140914209D1AC
:10196000A26A00F44031914204D1E16A00F0706053
:10197000884201D00120D9E70020D7E7043802408F
:1019800000004742800E4742007000400000FFFF09
:1019900010B5401EB0F1807F01D3012010BD4FF083
:1019A000E02460610F21601701F006F90020A061BA
:1019B00007202061002010BD7047000070B502684C
:1019C00004461068D168536910F00F0F53D003F02C
:1019D000010501F490762E435FD0C20705D0CA05F9
:1019E00003D5E26B42F00102E263420705D5DA0754
:1019F00003D0E26B42F00202E263820705D5DA0708
:101A000003D0E26B42F00402E263020707D501F063
:101A100020022A4303D0E26B42F00802E263E26B49
:101A2000002A34D0800604D5880602D5204600F06E
:101A30003FFF20684069E16BC0F3801001F00801AE
:101A40000143204624D000F025FF20684169490663
:101A50001AD5416921F040014161606BA0B11B4979
:101A60000165606BFFF75FFB002810D0606B016DB4
:101A7000BDE87040084783060FD58B060DD520467C
:101A8000BDE8704000F014BF2046FFF795FF70BD21
:101A9000FFF792FF0020E06370BD030606D50B063A
:101AA00004D52046BDE8704000F0E2BF4006F3D503
:101AB0004806F1D5D168204621F04001D1602021AF
:101AC00084F8391000F03FF970BD00008528000847
:101AD00070B5040004D094F83900002510B106E078
:101AE000012070BD84F83850204600F023F82420EF
:101AF00084F839002068C16821F40051C160204693
:101B000000F022FF2068016921F490410161206802
:101B1000416921F02A0141612068C16841F4005106
:101B2000C160E563202084F8390084F83A00002081
:101B300070BD000030B587B0044614216846FEF73A
:101B4000AAFB284D22680021274802230324AA4229
:101B50001ED1254A1032156845F40035156012680B
:101B600002F400320592026842F00102026000684D
:101B7000CDE9021400F0010005900C20CDE900032E
:101B80000720049069461948FFF7F2FA07B030BD04
:101B9000174DAA42FAD1144A1432156845F02005AF
:101BA0001560126802F020020592026842F00402F9
:101BB00002600068CDE9021400F004000590C02026
:101BC000CDE900030820049069460A48FFF7D0FADF
:101BD000002211464720FFF70FFC4720FFF7FEFBCE
:101BE000D4E70000004400403038024000000240CA
:101BF000001401400008024090F83A30202B22D116
:101C0000F9B1F2B190F83830012B1CD08162828595
:101C1000C2850021C163222280F83A2080F8381062
:101C20000168CA6842F48072CA6001684A6942F079
:101C300001024A610068C16841F02001C1600020D2
:101C40007047012070470220704700000D4910B511
:101C50000A6A0D4909686AB1012A11D100688842EF
:101C60000ED100F07DF9BDE810400122054906487B
:101C7000FFF7C2BF0068884202D100F009FAF2E71C
:101C800010BD000014000020D80000202DE9F8430A
:101C9000044690F839001F4616460D46202850D1BC
:101CA000B5B1AEB194F8380001284AD0012084F8CB
:101CB00038004FF00008C4F83C80212084F8390037
:101CC000FFF72CFBA6848146E68484F8388026E062
:101CD0000120BDE8F883E08C401EE084A0684B46FC
:101CE000B0F5805F4FF000024FF080012046009772
:101CF00003D000F0EEFEE8B90DE000F0EAFEC8B94E
:101D000028882168C0F308004860206908B16D1C6C
:101D100005E0AD1C03E0216815F8010B4860E08C7C
:101D20000028D8D14B46002240212046009700F0E1
:101D3000D0FE08B10320CCE7202084F83900002031
:101D4000C7E70220C5E77047FEE7000070B586B020
:101D500014216846FEF79FFA1A480024016841F0F2
:101D600080010160016801F080010591016841F086
:101D700001010160016801F001010591016841F074
:101D800008010160016801F008010591016841F056
:101D90000401016000680C4E00F004004FF470452F
:101DA0000590002229463046FFF7B3FA012000953E
:101DB000CDE90104694630460394FFF7D9F906B02E
:101DC00070BD000030380240000C0240FEE7704752
:101DD0002DE9F04101F02CFC3F4C606478B13FA04C
:101DE00000F0B2FE40A1606C01F014FCA064C16878
:101DF00001250026DFF8F480102905D020E0BDE899
:101E0000F0413BA000F0A0BE00693DA1FEF75AFAE8
:101E10004FF4004728B13BA000F096FE0122256157
:101E20000AE0A06C3AA10069FEF74CFA40B139A073
:101E300000F08AFE0022266139464046FFF769FA23
:101E400037A1606C01F0E6FBE064C16810291BD18A
:101E500000692BA1FEF736FA4FF4804728B131A074
:101E600000F072FE012265610AE0E06C28A10069C1
:101E7000FEF728FA40B12EA000F066FE002266614F
:101E800039464046FFF745FA2CA1606C01F0C2FBD1
:101E90002065C168102908D1016929A000F054FE0D
:101EA000206D0069FEF702FCA06128A1606C01F0C2
:101EB000B1FB6065C168102908D1016924A000F058
:101EC00043FE606D0069FEF7F1FBE061606CBDE808
:101ED000F04101F07BBB0000140000204A534F4E3C
:101EE000204F4B450D0A000054423100000C0240C7
:101EF0004A534F4E206572726F720D0A0000000047
:101F0000310000004F4E204431200D0A0000000037
:101F1000300000004F4646204431200D0A000000EA
:101F2000544232004F4E204432200D0A000000007F
:101F30004F4646204432200D0A0000004331000085
:101F400043313A2573200D0A00000000433200009F
:101F500043323A2573200D0A00000000704700004C
:101F600070B5254C254B20462278816D481C5A546B
:101F70000A2AA0653FD1194621A000F0E5FD24A161
:101F80001E48FEF79FF920B125A000F0DDFD0120DD
:101F900008E02BA11948FEF795F928B12DA000F013
:101FA000D3FD0020E0701CE02FA11448FEF78AF951
:101FB000D0B131A11148FEF7BBF92FA10020FEF7E7
:101FC000B7F92DA10020FEF7B3F92CA10020FEF7F0
:101FD000AFF9054601462AA000F0B6FD2846FFF7F6
:101FE000F7FEFFF79BF96060FFF798F96060BDE8C6
:101FF0007040FEF79FBF70BD140000207C010020E0
:1020000044617461204D5154543A2025730D0A00E7
:102010004D515454434F4E4E4543544544000000E7
:10202000436F6E6E656374204D51545420746F205D
:10203000524543454956454420444154410D0A0008
:102040004D515454444953434F4E4E4543544544D7
:10205000000000004E6F7420436F6E6E6563742045
:102060004D5154540D0A00002B4D515454535542B8
:1020700052454356000000002C0000000A000000FA
:1020800044415441204D5154543A2025730D0A00C7
:102090000349044B88780A781A54401C88707047AA
:1020A0001400002018010020704700002DE9FF4FA8
:1020B000ADF5637D8B46002001461AAB01AC33AD14
:1020C0000DF5987C65AE7EAF97AA0DF530790DF5CC
:1020D000497A1954215429540CF8001031543954B8
:1020E000115409F800100AF80010401C6428F0DBB5
:1020F0005A4655A1284600F04BFD53A14CA8E59A3D
:1021000000F046FD50A165A8E69A00F041FD4EA101
:102110007EA8F09A00F03CFD4BA197A8F19A00F040
:1021200037FD49A1B0A8F29A00F032FD47A101A8FD
:10213000FEF7BCF833A901A8FEF7B8F845A101A83D
:10214000FEF7B4F844A101A8FEF7B0F84CA901A825
:10215000FEF7ACF83FA101A8FEF7A8F840A101A83E
:10216000FEF7A4F865A901A8FEF7A0F839A101A817
:10217000FEF79CF83CA101A8FEF798F87EA901A8FB
:10218000FEF794F833A101A8FEF790F838A101A852
:10219000FEF78CF897A901A8FEF788F82DA101A8F1
:1021A000FEF784F834A101A8FEF780F8B0A901A8D1
:1021B000FEF77CF832A101A8FEF778F831A101A85A
:1021C000FEF774F801A930A000F0BEFC01A8FEF7EC
:1021D0008BF802461CA1C9A800F0DAFC2EA11AA8AF
:1021E000FEF764F81AA8E399FEF760F819A11AA897
:1021F000FEF75CF8C9A91AA8FEF758F82BA11AA88F
:10220000FEF754F81AA92BA000F09EFC032041F21F
:1022100088340090002322462AA11AA800F032F93F
:10222000FEF778FE2948406A002809D10520009071
:102230000023224626A101A800F024F9FEF76AFE39
:102240000DF5677DBDE8F08F256400007B224E44CC
:10225000223A2200222C0000224441223A2200008D
:1022600022544231223A220022544232223A22009F
:10227000224331223A220000224332223A22000035
:10228000227D00000D0A0000446174614A736F6E84
:102290003A2025730A00000041542B4D51545450EC
:1022A00055425241573D302C220000002C302C3139
:1022B0000D0A00004D5154545055425241573A2096
:1022C00025730A004F4B0D0A0D0A3E001400002032
:1022D0002B4D5154545055423A4F4B003EB5FFF7E9
:1022E0001DF80E4C6168401AB0F57A7F13D3E07880
:1022F00088B14FF400510A48FFF704F8FEF7FAFDE1
:1023000004F1140007C88DE8070004F10801E06B30
:102310000EC9FFF7CBFE012020623EBD1400002055
:10232000000802402DE9FF5F1E4690468246DDF818
:1023300038B0FEF7EFFDFEF7F1FFDFF8D090002593
:10234000C9F804004FF496700446C9F8206000F004
:102350008BFC0646002007463754401C2146A0420D
:10236000FAD353462AA2304600F0FEFB3046FDF772
:10237000BBFF82B24FF47A7A534631462548FFF7C5
:1023800085FC314624A000F0DFFBFEF7C7FF4C467A
:10239000C9F804004FF00109FEF7C0FF6168411A57
:1023A000414510D330466D1CFDF79EFF82B2534667
:1023B00031461848FFF76AFC31461EA000F0C4FB06
:1023C000FEF7ACFF6060134801994030FDF77AFFDB
:1023D00040B121A000F0B8FBFEF79CFD676284F8D5
:1023E000039009E05D45D7D320A000F0ADFBC4F811
:1023F0002490E770FEF78EFDFEF790FF606004B05A
:102400003046BDE8F05F00F0EBBB00001400002098
:1024100025730000D800002053656E642041542DC0
:10242000436F6D6D616E647320446174613A202561
:10243000730D0A0053656E642041542D436F6D6D1A
:10244000616E647320446174612054696D654F75D9
:10245000743A2025730D0A004D51545420436F6E79
:102460006E656374204F4B0D0A0000004D515454AB
:1024700020436F6E6E656374204552524F520D0AB1
:10248000000000002DE9FF5F1E4690468246DDF801
:1024900038B0FEF73FFDFEF741FFDFF8CC90002596
:1024A000C9F804004FF496700446C9F8206000F0A3
:1024B000DBFB0646002007463754401C2146A0425D
:1024C000FAD3534629A2304600F04EFB3046FDF7C2
:1024D0000BFF82B24FF47A7A534631462448FFF715
:1024E000D5FB314623A000F02FFBFEF717FF4C462B
:1024F000C9F804004FF00109FEF710FF6168411AA6
:10250000414510D330466D1CFDF7EEFE82B25346B6
:1025100031461748FFF7BAFB31461DA000F014FB07
:10252000FEF7FCFE6060124801994030FDF7CAFEDC
:1025300040B121A000F008FBFEF7ECFC676284F8D4
:10254000039008E05D45D7D31FA000F0FDFAC4F862
:102550002490FEF7DFFCFEF7E1FE606004B0304639
:10256000BDE8F05F00F03CBB1400002025730000C4
:10257000D800002053656E642041542D436F6D6D6B
:10258000616E647320446174613A2025730D0A0002
:1025900053656E642041542D436F6D6D616E64739D
:1025A0002053656E642044617461204D5154543A47
:1025B0002025730D0A00000053454E44204D515410
:1025C00054204F4B0D0A000053454E44204D5154AA
:1025D00054204552524F520D0A000000F0B5274CCE
:1025E0008DB0064615460F46002001466A46236216
:1025F0001154401C3228FBDB1046FDF775FE0146E6
:1026000033461FA2684600F0AFFA6846FDF76CFE3D
:1026100082B24FF47A76334669461B48FFF736FBA1
:1026200069461AA000F090FAFEF778FEC4F804009C
:10263000FEF774FE6168401AA8420FD36846FDF7A2
:1026400053FE82B2334669460F48FFF71FFB6946C7
:1026500016A000F079FAFEF761FE60600A4839467C
:102660004030FDF72FFE0028E2D0394619A000F0D7
:102670006BFAFEF74FFC0DB0F0BD00001400002017
:1026800025730D0A00000000D800002053656E6419
:102690002041542D436F6D6D616E647320536574DA
:1026A00074696E673A2025730D0A000053656E64E5
:1026B0002041542D436F6D6D616E647320536574BA
:1026C00074696E672054696D6553656E643A2025A0
:1026D000730D0A005265706F6E73652053657474D4
:1026E000696E673A2025730D0A00000070B542F24A
:1026F0001074002322461EA11EA0FFF76FFF40F6B4
:10270000B8352846FEF722FD00234FF4967218A133
:102710001BA0FFF763FF2846FEF718FD4FF4FA668B
:102720000023324612A118A0FFF758FF2846FEF7F3
:102730000DFD002332460EA115A0FFF74FFF2846DE
:10274000FEF704FD0023224615A119A0FFF746FF5E
:102750002846FEF7FBFC0023324605A11CA0FFF72C
:102760003DFF2846FEF7F2FC1D490020486270BD7F
:102770004F4B000041542B5253540D0A00000000EF
:1027800041540D0A00000000415445300D0A00007C
:1027900041542B43574D4F44453D312C310D0A00D8
:1027A0005749464920434F4E4E4543544544000047
:1027B00041542B43574A41503D224C617532222CE3
:1027C0002231326B686176616E63616E220D0A00A0
:1027D00041542B4349504D55583D300D0A000000DF
:1027E00014000020FEF7A0BD30B593B0302168463C
:1027F000FDF751FD14210CA8FDF74DFD18480025EB
:10280000016841F080510160006800F08050119033
:102810001448016841F4404101600068022400F45A
:1028200040401190012003901020049000940694E1
:102830000820CDE907506420CDE9090404200B905D
:102840006846FEF7F7FE0CA90F2081E83100E00290
:10285000CDE90F0503210CA8FEF700FE13B030BD33
:1028600040380240007000400548016841F47001A2
:10287000016003494FF00060803908607047000034
:1028800088ED00E010B5806B0021C185C184FFF7A1
:1028900093F810BD0168CA6822F49072CA6001689A
:1028A0004A6922F001024A61202180F83A107047FB
:1028B00010B590F83A10222901D0022010BD81688D
:1028C000B1F5805F11D00169002901681FD0496806
:1028D00001F07F03816A4A1C82620B70C18D491E20
:1028E0000904090CC18518D02BE00269816A002A0D
:1028F0000268526805D0D2B20A80816A491C81629E
:10290000ECE7C2F308020A80816A891CF7E74A688B
:10291000816A4B1C83620A70E0E70168CA6822F092
:102920002002CA600168CA6822F48072CA60016825
:102930004A6922F001024A61202180F83A10FFF72B
:1029400085F9002010BD00002DE9F0410446006823
:102950000169E26821F44051114301612169A068D5
:10296000E26908436169114308432168CA6849F272
:102970000C639A430243CA6020684169A26921F44A
:10298000407111434161E069192764253226B0F591
:10299000004F354A354920684FF0000806D088427C
:1029A00001D0904236D1FEF703FE35E0884201D0D7
:1029B000904202D1FEF7FCFD01E0FEF7E9FD6168FF
:1029C0004A18A0FB070148EB0803FDF701FC01468C
:1029D000B0FBF5F00201B1FBF5F06FF018035843BE
:1029E00001EB800006EBC000B0FBF5F000F0F80052
:1029F00002EB4002B1FBF5F0584301EB800006EB1F
:102A0000C000B0FBF5F000F00700216810448860BA
:102A1000BDE8F081FEF7BCFD61688B0F8A00A0FB6A
:102A20000701FDF7D5FB0146B0FBF5F06FF018028A
:102A3000504301EB800006EB0010B0FBF5F000F016
:102A4000F002B1FBF5F002EB0012B1FBF5F06FF014
:102A50001803584301EB800006EB0010B0FBF5F0C3
:102A600000F00F00D1E70000001401400010014009
:102A700090F83910212901D0022070478168B1F502
:102A8000805F016A0BD04A1C0262026809785160BB
:102A9000C18C491E0904090CC1840ED017E00988B5
:102AA0000268C1F30801516001690029016A02D07E
:102AB000491C0162ECE7891CFBE70168CA6822F047
:102AC0008002CA600068C16841F04001C160002016
:102AD00070472DE9F041984617460E460446069D7C
:102AE0001DE0681C1BD02DB1FEF718FCA0EB080000
:102AF000A84214D92068C16821F4D071C16020684F
:102B0000416921F001014161202084F8390084F8F5
:102B10003A00002084F838000320BDE8F0812068E6
:102B2000006836EA000004D00020B842D9D0002066
:102B3000F3E70120F9E700000148FEF73FBF00007E
:102B4000D8000020FEE700000FB4054B10B503A924
:102B5000044A029800F07AF910BC5DF814FB0000FA
:102B600039370008880000200FB41CB50A46521EF1
:102B7000CDE9000207A9054B6A46069800F066F900
:102B8000009A002111701CBC5DF814FB7B35000815
:102B90000FB4084B10B504A902AA039800F056F927
:102BA000044602A9002000F0F3FC204610BC5DF8AA
:102BB00014FB0000913500080907090E002804DB0A
:102BC00000F1E02080F80014704700F00F0000F1E1
:102BD000E02080F8141D70470048704794000020E2
:102BE00030B528B1144C031F002021680A4605E0C7
:102BF000084630BD9A4203D810465268002AF9D1DF
:102C0000002800D041680BD00468A3EB0005A54262
:102C100004D11B681C440346046002E0436000E0EA
:102C200023603AB11C68D51AA54203D115682C441B
:102C30001C6052685A6030BD8C000020000000000B
:102C400000B583B09FED060B0A4601468DED000BE3
:102C50006846FDF724FF9DED000B03B000BD0000AA
:102C600000000000000000002DE9F04782460F4CF4
:102C700010480D4E0E4F001B4FF0000820F00705C6
:102C80004FF0010900221146504600F09FFD002838
:102C900002D1306810B10020BDE8F0873C60C4E983
:102CA0000058C6F80090EDE7900000207403002063
:102CB0008C0000207005002002E008C8121F08C127
:102CC000002AFAD170477047002001E001C1121FAD
:102CD000002AFBD1704700002DE9FF5FDDE90220EB
:102CE000010DDDF838B0024318D044F61050A1F2BF
:102CF000FF3141430D140F98012820D0A5EB0B00A4
:102D0000401C5FEA000A4FF00004474EDFF81C91B8
:102D1000A046504616D5CAF1000728E00F980124B6
:102D200043A2012808D0002100980F9BC0E9002190
:102D3000C0E90243BDE8FF9F6FEA0B01F4E7CBF166
:102D40000000DEE7074612E0F80707D022463346C8
:102D500040464946FDF75EFD804689462246334699
:102D600010461946FDF756FD04460E467F10002F0B
:102D7000EAD1DDE90201BAF1000F42464B4602DA20
:102D8000FDF748FD01E0FDF752FF04460E46002224
:102D9000284BFDF7E9FD03D84FF0FF30014607E06F
:102DA0000022254B20463146FDF78DFCFDF7BAFF8A
:102DB000102409E0002C0ADB0A220023FDF708FAA0
:102DC000019B30321A55641E50EA0102F2D1641C94
:102DD000019AC4F1110314440F9A012A03D001226D
:102DE00008430DD10AE0084304D000204FF0110B36
:102DF0000F9080E7A3EB0B056D1E0DE05B4504DD36
:102E00004FF0000205F1010504E003DA4FF0000283
:102E1000A5F10105002AECD000980F99C0E9023114
:102E2000C0E9004586E70000000024400000F03FB4
:102E3000300000000000F0430000E03F30380A2876
:102E400001D2012070470020704700002DE9FF4F9C
:102E500095B09B468946064600250FE2252877D186
:102E600000242746F84A0121059400E0044316F89F
:102E7000013F203B01FA03F01042F7D130782A28B5
:102E800011D06FF02F033078A0F13002092A16D844
:102E9000059A44F0020402EB820203EB4202104462
:102EA000761C0590EFE759F8042B0592002A03DA07
:102EB000504244F40054059044F00204761C3078EB
:102EC0002E2816D116F8010F44F004042A280DD03C
:102ED0006FF02F023078A0F13003092B09D807EBEF
:102EE000870302EB4303C718761CF3E759F8047B0A
:102EF000761C30786C280FD006DC4C2817D0682858
:102F00000DD06A2814D104E0742810D07A280FD18B
:102F10000DE044F400140AE044F4801401E044F4A9
:102F200040147278824202D104F58014761C761C1B
:102F3000307866280BD013DC582877D009DC0028BD
:102F400075D04528F6D04628F4D047281AD19DE1FF
:102F500018E0632835D0642879D0652812D195E12E
:102F6000702873D008DC6728F1D069286FD06E28EC
:102F70000DD06F2806D1B5E073282CD0752875D0F8
:102F8000782874D05A46179990476D1C75E1C4F3A0
:102F90000250022809D003280DD0D9F800100428C7
:102FA0000DD00D6009F1040967E1D9F80010EA17A6
:102FB000C1E90052F6E7D9F800100D80F2E70D7074
:102FC000F0E719F8041B8DF8001000208DF80100BF
:102FD000EA46012003E059F804AB4FF0FF306107E7
:102FE0004FF0000102D40DE008F101018846B9421A
:102FF0000FDA8045F8DB1AF808100029F4D108E050
:1030000008F1010188468142FADB1AF8081000290C
:10301000F6D105985B46A0EB080721463846179A7B
:1030200000F094FA284400EB080507E04DE029E1A0
:103030000DE01AF8010B5A4617999047B8F10108AC
:10304000F7D25B4621463846179A13E142E00A223E
:103050000092C4F302524FF0000A022A08D059F835
:1030600004CB032A4FEAEC710AD00DE029E02AE0F4
:1030700009F1070121F00702F2E802C1914609E0D7
:103080000FFA8CFC4FEAEC71042A03D14FFA8CFC46
:103090004FEAEC71002907DA0A460021DCF1000C46
:1030A00061EB02012D2202E0220504D52B228DF8CE
:1030B0000420012203E0E20701D02022F7E7904636
:1030C00059E00A2102E010220DE010214FF0000A21
:1030D00000910BE010224FF0000A44F0040408278E
:1030E000009203E008224FF0000A0092C4F302525B
:1030F000022A05D059F804CB0021032A08D009E0A0
:1031000009F1070121F00702F2E802C1914605E04A
:103110001FFA8CFC042A01D10CF0FF0C4FF00008C0
:10312000220728D5702806D0009B83F0100353EAAD
:103130000A0305D00EE040228DF80420012208E0A9
:103140005CEA010206D030228DF804208DF80500DB
:1031500002229046009B83F0080353EA0A030AD137
:103160005CEA010201D1620705D530228DF8042006
:103170004FF001087F1E582804D034A003900EA8F9
:1031800002900DE036A0F9E753466046009AFDF73D
:103190001FF884460398825C0298401E02900270D9
:1031A0005CEA0100F0D1029806A9081A00F1200A91
:1031B000600702D524F4803400E00127574502DD82
:1031C000A7EB0A0000E0002000EB0A010090059840
:1031D0004144401A0590E00306D45B462146179A05
:1031E000059800F0B3F90544002706E001A85A4607
:1031F000C05D179990476D1C7F1C4745F6DBE003C7
:103200000CD55B462146179A059800F09FF90544B6
:1032100004E030205A46179990476D1C0099481ECB
:1032200000900029F5DC08E0029802995A460078DF
:10323000491C0291179990476D1CBAF10001AAF13F
:10324000010AF1DC65E10000092801003031323368
:1032500034353637383961626364656600000000D2
:1032600030313233343536373839414243444546BC
:103270000000000000F058F90544761C3078002862
:103280007FF4ECAD19B02846BDE8F08F620700D49A
:10329000062709F1070222F0070CFCE80223E146A9
:1032A00003F000485FEA080C02D00FF2702C0DE02A
:1032B0005FEA045C02D50FF2682C07E05FEAC47C89
:1032C00002D00FF2602C01E0AFF2700C4FF0FF382B
:1032D00023F00043CDF850C065280CD006DC45280B
:1032E00009D046281DD047283DD13DE0662818D09A
:1032F00067287ED138E00021112F01DB112000E08A
:10330000781CCDE9000106A90EA8FFF7E5FCDDE970
:103310000F010E9A03910021009207F1010A049116
:103320004DE04FF000400097CDE9011006A90EA82E
:10333000FFF7D2FCDDE90F0203920E9B11990022E8
:10334000DDF80CA00093049211B9791C00EB010A7E
:10335000B7EB0A0004D4C0F1FF3007F1010A049072
:10336000AAEB0700019044E0012F00DA01270021B9
:10337000112F01DD112000E03846CDE9000106A93A
:103380000EA8FFF7A9FCDDE90F010E9A03910021B9
:1033900004910092BA4621070CD40399514500DAF2
:1033A0008A46BAF1010F05DD009AAAF10101515CCC
:1033B000302908D0B84202DA10F1040F06DA0121F0
:1033C000CDE9011015E0AAF10101E9E7002805DCCB
:1033D000049901440491AAEB000102E0411C51450B
:1033E00000DD8A460499401A401C01904FF00040CD
:1033F0000290200704D40198504501DBCDF80480E9
:1034000000208DF84F0002980DF14F07B0F1004FEA
:1034100025D02B200E9002984FF0020800280CDADD
:10342000404202902D200E9007E00A210298FDF7FD
:10343000B3FA3031029007F8011DB8F10001A8F18C
:103440000108F2DC02980028EFD1791E0E9808706E
:10345000307800F0200040F0450007F8020D12A877
:10346000C01B00F107081498007800B1012000EBA0
:103470000A01019801EBE07105984144401A401E91
:103480000590E00306D45B462146179A059800F0A4
:103490005DF805441498007818B15A46179990477A
:1034A0006D1CE00324D55B462146179A059800F071
:1034B0004DF805441CE00498002807DBDDE9030112
:1034C000884203DD0098405C179901E0179930208D
:1034D0005A469047049805F10105401C0490019854
:1034E000401E019004D12E205A46179990476D1C1A
:1034F000BAF10001AAF1010ADDDC05E017F8010BC1
:103500005A46179990476D1CB8F10001A8F10108BF
:10351000F4DC5B462146179A0598ABE62D000000C7
:103520002B000000200000002DE9F041044600259A
:103530001E461746880404D405E039462020B047CB
:103540006D1C641EF9D52846BDE8F0812DE9F041D7
:10355000044600251E469046C80301D5302700E0EA
:103560002027880404D505E041463846B0476D1C45
:10357000641EF9D52846BDE8F0814A68002A06D0C5
:103580000A68531C0B6010704868401E4860704702
:103590000A68531C0B601070704710B530B1036897
:1035A00023B1D0E90121914201D204E0002010BDF5
:1035B000491C816020B1914202D25C5C202CF7D979
:1035C0009142F4D1491E816010BD000070B50446DF
:1035D0000F4E19E0A0892568C0050AD4A06820B163
:1035E000FFF7F4FFA089C00503D4206908B1716812
:1035F0008847A089800503D4206A08B1716888478C
:103600007168204688472C46002CE3D170BD00002D
:1036100008000020002200F09BB810B501682820A7
:103620008847040002D02821FCF735FE204610BD53
:103630000022114600F06EB82DE9F04788B00F4621
:1036400004469A4616461C216846FCF724FE2F487D
:103650000025002C0560456055D08146E7B3CDE9D3
:1036600000470295D9E90212D9F810000491CDE97A
:10367000052009F10800FFF7D0FF5FEA00082BD012
:1036800000986F4608B1029808B100270BE0019836
:10369000042808D903221EA10098FCF73AFE10B9AD
:1036A0000298C01C02903846FFF777FF014640465B
:1036B00000F036FB68B1BAF1000F13D06846FFF78F
:1036C0006CFFDDE90101814203D202990098405C60
:1036D00040B14046FFF77AFFDDE9011088420AD287
:1036E00005460BE01EB10299009808443060404640
:1036F00008B0BDE8F087081E00D0451E0EB1601965
:103700003060C9E900450020F2E700000000002019
:10371000EFBBBF0070B515460E46040009D0FCF79C
:10372000E3FD411C2B4632462046BDE87040FFF7C2
:1037300083BF002070BD000013B54FF6FF73012258
:1037400069460248FEF7A2FA00981CBD98000020C6
:103750002DE9F0418846A8B3B8F1000F33D0846852
:103760000AB90AE024686CB3216A59B34046FCF7F1
:10377000C2FD0028F6D120E024681CB3266A5FEA67
:103780000805F9D0002EF7D0B54218D002E098B164
:103790006D1C761C2878FCF74CFD07463078FCF74A
:1037A00048FD87422878F2D0FCF743FD0546307883
:1037B000FCF73FFD8542DFD124B1206A10B12046DD
:1037C000BDE8F081FFE70020FAE700002DE9F041B5
:1037D0000B3020F00706104D19E02068B04215D3D9
:1037E000B0420AD9871B201DD4F80480FCF73AFDAB
:1037F000A019C0E90078286004E060682860201DF6
:10380000FCF730FD201D2660BDE8F081251D2C68E9
:10381000002CE2D10020F7E78C0000201CB5FDF75A
:103820008BFDFEF7E1FFFEF791FA294827494FF497
:10383000E13500240160C0E901540C26C460C0E9F0
:1038400004468461C461FEF743F9214821494038A8
:103850000160C0E90154C460C0E904468461C461E8
:10386000FEF736F901221C491948FEF7C5F91A4935
:1038700017480122491C4038FEF7BEF94FF47A740C
:103880002046FDF763FC15A0FFF75EF9FEF72EFF5B
:103890002046FDF75BFC104CD4E90E01CDE9000198
:1038A00004F128000FC8FDF755FBFDF737FD6060F8
:1038B000206C20B10128FBD10028FDD1F8E7FEF7EC
:1038C0000DFD206C0128FAD1F2E700000014014040
:1038D000D8000020004400401400002053455454F8
:1038E000494E47204553500D0A0000002DE9F04194
:1038F00007460025C8680C462E46B0F57A7F5BD295
:10390000401CE0602168A068095C5B2954D1401C20
:10391000A0602046FFF741FE4CB1D4E90110884277
:1039200003D22268125C5D2A33D0884203D3A06898
:10393000401EA06040E0401E04F11008A060404618
:10394000FFF76BFE98B30DB3306046600646A06883
:10395000401CA0602046FFF720FE2146304600F0C4
:10396000DFF930B32046FFF718FE14B3D4E9011095
:10397000884203D22168095C2C29E0D06268904219
:1039800017D22168085C5D2813D102E005462E4657
:10399000DDE7E068401EE06005B16E602020C7E909
:1039A0000250A068401CA0600120BDE8F081FFE744
:1039B00015B12846FFF70AFE0020F6E7034610B5CA
:1039C00000200246995CA1F13004092C01D830385E
:1039D0000AE0A1F14104052C01D8373804E0A1F137
:1039E0006104052C08D857380844032A00D2000186
:1039F000521C042AE6D310BD002010BDF0B54FF0D4
:103A000000022DED028B91B00C0005464FF02E0305
:103A1000114610923DD02068D8B36E4627E0276843
:103A20003844085C34281BD00ADCA0F12B07092F8E
:103A300023D2DFE807F015221517221515151500FA
:103A400038280DD006DC35280AD0362808D037288B
:103A500013D105E0392803D0452801D065280CD1C1
:103A6000705400E07354491C3F2906D22CB1A06861
:103A7000D4F804C047186745D1D3725410A9304612
:103A8000FFF7DEF81098B0EE408AF0EE608A8642CA
:103A900004D1002011B0BDEC028BF0BD9FED130BE3
:103AA00085ED068B53EC102B51EC180BFCF75CFFEB
:103AB00002D86FF000400FE09FED0E0B51EC180B99
:103AC00053EC102BFCF738FF02D84FF0004003E016
:103AD00051EC180BFCF710FF68610820E8601099A2
:103AE000A068891B0844A0600120D3E70000C0FF44
:103AF000FFFFDF41000000000000E0C12DE9F041C0
:103B000007460026C8680C463546B0F57A7F78D25D
:103B1000401CE060002C74D0D4E90110884270D2BF
:103B20002168095C7B296CD1401CA0602046FFF70E
:103B300034FDD4E90110884203D22268125C7D2A48
:103B40004CD08842A0F10100A0605AD204F11008C4
:103B50004046FFF762FDE8B3F6B1286045600546D0
:103B6000A068401CA0602046FFF717FD21462846AC
:103B700000F04AF878B32046FFF70FFD2869286265
:103B8000002028613CB3D4E90110884236D2216874
:103B9000095C3A2932D102E006463546E0E7401C8E
:103BA000A0602046FFF7F9FC2146284600F0B8F84F
:103BB00088B12046FFF7F1FCD4E90110884203D216
:103BC0002168095C2C29C3D06268904216D2216812
:103BD000085C01E011E011E07D280FD1E068401E93
:103BE000E06006B175604020C7E90260A068401C33
:103BF000A0600120BDE8F08103E016B13046FFF778
:103C0000E5FC0020F6E700002DE9F84380460E466B
:103C1000086889684FF000094318CDF80090415CAE
:103C20005D1C5C1C222975D10022716809E000BF6F
:103C3000BCF15C0F04D17F1C8F426BD2521C641C00
:103C4000641C271A8F4204D294F800C0BCF1220FE2
:103C5000EED1201A88425DD2207822285AD1E01A6B
:103C6000801A3169401C8847070053D000973DE017
:103C700029785C2905D000986D1C00F8011B009084
:103C800034E00221601B012840DB6878662814D0EC
:103C900008DC22281DD02F281BD05C2819D06228D0
:103CA00034D108E06E280ED072280ED074280ED0C1
:103CB00075282BD112E0082200E00C22009800F8B1
:103CC000012B009011E00A22F8E70D22F6E7092205
:103CD000F4E7009A02F8010B009206E06A462146DA
:103CE000284600F0D1F8010010D00D44A542BFD302
:103CF000009981F800901021C8E903173068201A54
:103D0000401CB0600120BDE8F88303E017B1716981
:103D10003846884715B13068281AB0600020F2E7AD
:103D200070B50C0005465ED0206800285BD0A16805
:103D300063680A1D9A4205D80844042231A1FCF7A1
:103D4000E8FA78B3A0686268411D0126914206D85E
:103D50002168052208442DA1FCF7DBFA28B3A068EE
:103D60006268011D914206D821680422084429A1F5
:103D7000FCF7CFFAE8B1D4E90101814203D222680D
:103D8000525C222A1DD0814221D22268525C2D2A07
:103D900002D0303A092A1AD821462846BDE8704098
:103DA000FFF72CBE0420E86006E0EE60A068401D2E
:103DB00004E002206E61E860A068001DA0600120A0
:103DC00070BD21462846BDE87040FFF71DBF814207
:103DD00003D22268525C5B2A07D0814203D220685A
:103DE000405C7B2807D0002070BD21462846BDE8F6
:103DF0007040FFF77BBD21462846BDE87040FFF7C5
:103E00007DBE00006E756C6C0000000066616C7316
:103E10006500000074727565000000002DE9F04730
:103E200004008A4616D054F8047CD4F800903E1F53
:103E3000564500D956462046FEF7D2FE054688462E
:103E4000324621465046FFF7C1FC40B1C0F8009011
:103E5000BDE8F087BDE8F0470846FEF705BF44E936
:103E6000017955B129686A18211F8A4202D9611B5C
:103E7000091F2960C5F80480EAE7024AC2F80080F9
:103E8000E6E700008C0000202DE9F04705460027FA
:103E9000481B1646894606285DDBA81CFFF78EFDE9
:103EA0000446A0F55C414FF48060814253D3A4F5F1
:103EB0005841824651451AD2A81DA9EB00014FF086
:103EC0000C08062947DB01785C2944D14178752923
:103ED00041D1801CFFF772FDA0F55C4151453AD2FB
:103EE000C4F3090161F39F2000F5803002E04FF038
:103EF00006082046802801D2012110E0B0F5006FAD
:103F000002D20221C0270AE0B0F5803F02D203218D
:103F1000E02704E0B0F5881F1DD20421F0274A1ED7
:103F200008E000BF00F0BF03346843F0800380095D
:103F3000A354521E12F0FF02F4D1012901D93843D3
:103F400001E000F07F003268107030680844306093
:103F50004046BDE8F0870020FBE7000000000000BD
:103F60000000010203040607080900000000010226
:103F700003040040404040404040404041414141F6
:103F80004140404040404040404040404040404030
:103F90004040400502020202020202020202020244
:103FA00002020220202020202020202020020202C5
:103FB0000202020290909090909010101010101039
:103FC000101010101010101010101010101002020D
:103FD0000202020288888888888808080808080879
:103FE000080808080808080808080808080802025D
:103FF00002024000733F00083131313100000000FF
:10400000363546343835364546343032344444410A
:1040100000000000746965706170706C656964000F
:10402000746965706170706C6569642F6D61796C1D
:10403000616E68006E676F696E6861696F742E6388
:104040006F6D0000746965706170706C6569642FD4
:1040500071756174000000007840000800000020C5
:1040600098000000B82C00081041000898000020BB
:10407000D8080000C82C0008000000000000000064
:10408000692C0008E12B00081D3E0008000000001C
:104090000000000000000000000000000000000020
:1040A0000000000000000000000000000000000010
:1040B0000000000034400008F83F000814400008E9
:1040C00000400008444000082040000800000000B4
:1040D00000000000000000000000000000000000E0
:1040E00000000000000000000100000010000000BF
:1040F000000000000024F4000000000000000000A8
:1041000000000000000000000000000000000000AF
:040000050800019955
:00000001FF
